{
  "_format": "hh-sol-artifact-1",
  "contractName": "AlienCrosmobaby",
  "sourceName": "contracts/CrosmoBaby.sol",
  "abi": [
    {
      "inputs": [
        {
          "internalType": "string",
          "name": "_initBaseURI",
          "type": "string"
        },
        {
          "internalType": "address",
          "name": "_crosmonaut",
          "type": "address"
        },
        {
          "internalType": "address",
          "name": "_crosmocraft",
          "type": "address"
        }
      ],
      "stateMutability": "nonpayable",
      "type": "constructor"
    },
    {
      "anonymous": false,
      "inputs": [
        {
          "indexed": true,
          "internalType": "address",
          "name": "owner",
          "type": "address"
        },
        {
          "indexed": true,
          "internalType": "address",
          "name": "approved",
          "type": "address"
        },
        {
          "indexed": true,
          "internalType": "uint256",
          "name": "tokenId",
          "type": "uint256"
        }
      ],
      "name": "Approval",
      "type": "event"
    },
    {
      "anonymous": false,
      "inputs": [
        {
          "indexed": true,
          "internalType": "address",
          "name": "owner",
          "type": "address"
        },
        {
          "indexed": true,
          "internalType": "address",
          "name": "operator",
          "type": "address"
        },
        {
          "indexed": false,
          "internalType": "bool",
          "name": "approved",
          "type": "bool"
        }
      ],
      "name": "ApprovalForAll",
      "type": "event"
    },
    {
      "anonymous": false,
      "inputs": [
        {
          "indexed": true,
          "internalType": "address",
          "name": "previousOwner",
          "type": "address"
        },
        {
          "indexed": true,
          "internalType": "address",
          "name": "newOwner",
          "type": "address"
        }
      ],
      "name": "OwnershipTransferred",
      "type": "event"
    },
    {
      "anonymous": false,
      "inputs": [
        {
          "indexed": true,
          "internalType": "address",
          "name": "from",
          "type": "address"
        },
        {
          "indexed": true,
          "internalType": "address",
          "name": "to",
          "type": "address"
        },
        {
          "indexed": true,
          "internalType": "uint256",
          "name": "tokenId",
          "type": "uint256"
        }
      ],
      "name": "Transfer",
      "type": "event"
    },
    {
      "inputs": [],
      "name": "ICrosmocraft",
      "outputs": [
        {
          "internalType": "contract IERC721",
          "name": "",
          "type": "address"
        }
      ],
      "stateMutability": "view",
      "type": "function"
    },
    {
      "inputs": [],
      "name": "ICrosmonaut",
      "outputs": [
        {
          "internalType": "contract IERC721",
          "name": "",
          "type": "address"
        }
      ],
      "stateMutability": "view",
      "type": "function"
    },
    {
      "inputs": [
        {
          "internalType": "address[]",
          "name": "_holders",
          "type": "address[]"
        },
        {
          "internalType": "uint256[]",
          "name": "_counts",
          "type": "uint256[]"
        }
      ],
      "name": "airdropNFTs",
      "outputs": [],
      "stateMutability": "nonpayable",
      "type": "function"
    },
    {
      "inputs": [
        {
          "internalType": "address",
          "name": "to",
          "type": "address"
        },
        {
          "internalType": "uint256",
          "name": "tokenId",
          "type": "uint256"
        }
      ],
      "name": "approve",
      "outputs": [],
      "stateMutability": "nonpayable",
      "type": "function"
    },
    {
      "inputs": [],
      "name": "artistFee",
      "outputs": [
        {
          "internalType": "uint256",
          "name": "",
          "type": "uint256"
        }
      ],
      "stateMutability": "view",
      "type": "function"
    },
    {
      "inputs": [],
      "name": "artistWallet",
      "outputs": [
        {
          "internalType": "address",
          "name": "",
          "type": "address"
        }
      ],
      "stateMutability": "view",
      "type": "function"
    },
    {
      "inputs": [
        {
          "internalType": "address",
          "name": "owner",
          "type": "address"
        }
      ],
      "name": "balanceOf",
      "outputs": [
        {
          "internalType": "uint256",
          "name": "",
          "type": "uint256"
        }
      ],
      "stateMutability": "view",
      "type": "function"
    },
    {
      "inputs": [],
      "name": "baseExtension",
      "outputs": [
        {
          "internalType": "string",
          "name": "",
          "type": "string"
        }
      ],
      "stateMutability": "view",
      "type": "function"
    },
    {
      "inputs": [],
      "name": "cost",
      "outputs": [
        {
          "internalType": "uint256",
          "name": "",
          "type": "uint256"
        }
      ],
      "stateMutability": "view",
      "type": "function"
    },
    {
      "inputs": [],
      "name": "crosmocraftCost",
      "outputs": [
        {
          "internalType": "uint256",
          "name": "",
          "type": "uint256"
        }
      ],
      "stateMutability": "view",
      "type": "function"
    },
    {
      "inputs": [],
      "name": "crosmonautCost",
      "outputs": [
        {
          "internalType": "uint256",
          "name": "",
          "type": "uint256"
        }
      ],
      "stateMutability": "view",
      "type": "function"
    },
    {
      "inputs": [
        {
          "internalType": "uint256",
          "name": "tokenId",
          "type": "uint256"
        }
      ],
      "name": "getApproved",
      "outputs": [
        {
          "internalType": "address",
          "name": "",
          "type": "address"
        }
      ],
      "stateMutability": "view",
      "type": "function"
    },
    {
      "inputs": [
        {
          "internalType": "address",
          "name": "owner",
          "type": "address"
        },
        {
          "internalType": "address",
          "name": "operator",
          "type": "address"
        }
      ],
      "name": "isApprovedForAll",
      "outputs": [
        {
          "internalType": "bool",
          "name": "",
          "type": "bool"
        }
      ],
      "stateMutability": "view",
      "type": "function"
    },
    {
      "inputs": [
        {
          "internalType": "address",
          "name": "_address",
          "type": "address"
        }
      ],
      "name": "isCrosmocraft",
      "outputs": [
        {
          "internalType": "bool",
          "name": "",
          "type": "bool"
        }
      ],
      "stateMutability": "view",
      "type": "function"
    },
    {
      "inputs": [
        {
          "internalType": "address",
          "name": "_address",
          "type": "address"
        }
      ],
      "name": "isCrosmonaut",
      "outputs": [
        {
          "internalType": "bool",
          "name": "",
          "type": "bool"
        }
      ],
      "stateMutability": "view",
      "type": "function"
    },
    {
      "inputs": [],
      "name": "maxSupply",
      "outputs": [
        {
          "internalType": "uint256",
          "name": "",
          "type": "uint256"
        }
      ],
      "stateMutability": "view",
      "type": "function"
    },
    {
      "inputs": [
        {
          "internalType": "uint256",
          "name": "amount",
          "type": "uint256"
        }
      ],
      "name": "mint",
      "outputs": [],
      "stateMutability": "payable",
      "type": "function"
    },
    {
      "inputs": [
        {
          "internalType": "address",
          "name": "_minter",
          "type": "address"
        }
      ],
      "name": "mintCost",
      "outputs": [
        {
          "internalType": "uint256",
          "name": "",
          "type": "uint256"
        }
      ],
      "stateMutability": "view",
      "type": "function"
    },
    {
      "inputs": [],
      "name": "name",
      "outputs": [
        {
          "internalType": "string",
          "name": "",
          "type": "string"
        }
      ],
      "stateMutability": "view",
      "type": "function"
    },
    {
      "inputs": [],
      "name": "owner",
      "outputs": [
        {
          "internalType": "address",
          "name": "",
          "type": "address"
        }
      ],
      "stateMutability": "view",
      "type": "function"
    },
    {
      "inputs": [
        {
          "internalType": "uint256",
          "name": "tokenId",
          "type": "uint256"
        }
      ],
      "name": "ownerOf",
      "outputs": [
        {
          "internalType": "address",
          "name": "",
          "type": "address"
        }
      ],
      "stateMutability": "view",
      "type": "function"
    },
    {
      "inputs": [
        {
          "internalType": "bool",
          "name": "_state",
          "type": "bool"
        }
      ],
      "name": "pause",
      "outputs": [],
      "stateMutability": "nonpayable",
      "type": "function"
    },
    {
      "inputs": [],
      "name": "paused",
      "outputs": [
        {
          "internalType": "bool",
          "name": "",
          "type": "bool"
        }
      ],
      "stateMutability": "view",
      "type": "function"
    },
    {
      "inputs": [],
      "name": "renounceOwnership",
      "outputs": [],
      "stateMutability": "nonpayable",
      "type": "function"
    },
    {
      "inputs": [
        {
          "internalType": "uint256",
          "name": "_tokenId",
          "type": "uint256"
        },
        {
          "internalType": "uint256",
          "name": "_salePrice",
          "type": "uint256"
        }
      ],
      "name": "royaltyInfo",
      "outputs": [
        {
          "internalType": "address",
          "name": "",
          "type": "address"
        },
        {
          "internalType": "uint256",
          "name": "",
          "type": "uint256"
        }
      ],
      "stateMutability": "view",
      "type": "function"
    },
    {
      "inputs": [
        {
          "internalType": "address",
          "name": "from",
          "type": "address"
        },
        {
          "internalType": "address",
          "name": "to",
          "type": "address"
        },
        {
          "internalType": "uint256",
          "name": "tokenId",
          "type": "uint256"
        }
      ],
      "name": "safeTransferFrom",
      "outputs": [],
      "stateMutability": "nonpayable",
      "type": "function"
    },
    {
      "inputs": [
        {
          "internalType": "address",
          "name": "from",
          "type": "address"
        },
        {
          "internalType": "address",
          "name": "to",
          "type": "address"
        },
        {
          "internalType": "uint256",
          "name": "tokenId",
          "type": "uint256"
        },
        {
          "internalType": "bytes",
          "name": "_data",
          "type": "bytes"
        }
      ],
      "name": "safeTransferFrom",
      "outputs": [],
      "stateMutability": "nonpayable",
      "type": "function"
    },
    {
      "inputs": [],
      "name": "saleState",
      "outputs": [
        {
          "internalType": "uint256",
          "name": "",
          "type": "uint256"
        }
      ],
      "stateMutability": "view",
      "type": "function"
    },
    {
      "inputs": [
        {
          "internalType": "address[]",
          "name": "_holders",
          "type": "address[]"
        },
        {
          "internalType": "uint256[]",
          "name": "_counts",
          "type": "uint256[]"
        }
      ],
      "name": "setAirDropCounts",
      "outputs": [],
      "stateMutability": "nonpayable",
      "type": "function"
    },
    {
      "inputs": [
        {
          "internalType": "address",
          "name": "operator",
          "type": "address"
        },
        {
          "internalType": "bool",
          "name": "approved",
          "type": "bool"
        }
      ],
      "name": "setApprovalForAll",
      "outputs": [],
      "stateMutability": "nonpayable",
      "type": "function"
    },
    {
      "inputs": [
        {
          "internalType": "address",
          "name": "_account",
          "type": "address"
        }
      ],
      "name": "setArtistWallet",
      "outputs": [],
      "stateMutability": "nonpayable",
      "type": "function"
    },
    {
      "inputs": [
        {
          "internalType": "string",
          "name": "_newBaseExtension",
          "type": "string"
        }
      ],
      "name": "setBaseExtension",
      "outputs": [],
      "stateMutability": "nonpayable",
      "type": "function"
    },
    {
      "inputs": [
        {
          "internalType": "string",
          "name": "_newBaseURI",
          "type": "string"
        }
      ],
      "name": "setBaseURI",
      "outputs": [],
      "stateMutability": "nonpayable",
      "type": "function"
    },
    {
      "inputs": [
        {
          "internalType": "uint256",
          "name": "_newCost",
          "type": "uint256"
        }
      ],
      "name": "setCost",
      "outputs": [],
      "stateMutability": "nonpayable",
      "type": "function"
    },
    {
      "inputs": [
        {
          "internalType": "uint256",
          "name": "_newCrosmocraftCost",
          "type": "uint256"
        }
      ],
      "name": "setCrosmocraftCost",
      "outputs": [],
      "stateMutability": "nonpayable",
      "type": "function"
    },
    {
      "inputs": [
        {
          "internalType": "uint256",
          "name": "_newCrosmonautCost",
          "type": "uint256"
        }
      ],
      "name": "setCrosmonautCost",
      "outputs": [],
      "stateMutability": "nonpayable",
      "type": "function"
    },
    {
      "inputs": [],
      "name": "startPresale",
      "outputs": [],
      "stateMutability": "nonpayable",
      "type": "function"
    },
    {
      "inputs": [],
      "name": "startPublicSale",
      "outputs": [],
      "stateMutability": "nonpayable",
      "type": "function"
    },
    {
      "inputs": [
        {
          "internalType": "bytes4",
          "name": "interfaceId",
          "type": "bytes4"
        }
      ],
      "name": "supportsInterface",
      "outputs": [
        {
          "internalType": "bool",
          "name": "",
          "type": "bool"
        }
      ],
      "stateMutability": "view",
      "type": "function"
    },
    {
      "inputs": [],
      "name": "symbol",
      "outputs": [
        {
          "internalType": "string",
          "name": "",
          "type": "string"
        }
      ],
      "stateMutability": "view",
      "type": "function"
    },
    {
      "inputs": [],
      "name": "teamFee",
      "outputs": [
        {
          "internalType": "uint256",
          "name": "",
          "type": "uint256"
        }
      ],
      "stateMutability": "view",
      "type": "function"
    },
    {
      "inputs": [
        {
          "internalType": "uint256",
          "name": "from",
          "type": "uint256"
        },
        {
          "internalType": "uint256",
          "name": "to",
          "type": "uint256"
        }
      ],
      "name": "teamMint",
      "outputs": [],
      "stateMutability": "nonpayable",
      "type": "function"
    },
    {
      "inputs": [],
      "name": "teamWallet",
      "outputs": [
        {
          "internalType": "address",
          "name": "",
          "type": "address"
        }
      ],
      "stateMutability": "view",
      "type": "function"
    },
    {
      "inputs": [
        {
          "internalType": "uint256",
          "name": "index",
          "type": "uint256"
        }
      ],
      "name": "tokenByIndex",
      "outputs": [
        {
          "internalType": "uint256",
          "name": "",
          "type": "uint256"
        }
      ],
      "stateMutability": "view",
      "type": "function"
    },
    {
      "inputs": [
        {
          "internalType": "address",
          "name": "owner",
          "type": "address"
        },
        {
          "internalType": "uint256",
          "name": "index",
          "type": "uint256"
        }
      ],
      "name": "tokenOfOwnerByIndex",
      "outputs": [
        {
          "internalType": "uint256",
          "name": "",
          "type": "uint256"
        }
      ],
      "stateMutability": "view",
      "type": "function"
    },
    {
      "inputs": [
        {
          "internalType": "uint256",
          "name": "tokenId",
          "type": "uint256"
        }
      ],
      "name": "tokenURI",
      "outputs": [
        {
          "internalType": "string",
          "name": "",
          "type": "string"
        }
      ],
      "stateMutability": "view",
      "type": "function"
    },
    {
      "inputs": [],
      "name": "totalSupply",
      "outputs": [
        {
          "internalType": "uint256",
          "name": "",
          "type": "uint256"
        }
      ],
      "stateMutability": "view",
      "type": "function"
    },
    {
      "inputs": [
        {
          "internalType": "address",
          "name": "from",
          "type": "address"
        },
        {
          "internalType": "address",
          "name": "to",
          "type": "address"
        },
        {
          "internalType": "uint256",
          "name": "tokenId",
          "type": "uint256"
        }
      ],
      "name": "transferFrom",
      "outputs": [],
      "stateMutability": "nonpayable",
      "type": "function"
    },
    {
      "inputs": [
        {
          "internalType": "address",
          "name": "newOwner",
          "type": "address"
        }
      ],
      "name": "transferOwnership",
      "outputs": [],
      "stateMutability": "nonpayable",
      "type": "function"
    },
    {
      "inputs": [
        {
          "internalType": "address",
          "name": "_owner",
          "type": "address"
        }
      ],
      "name": "walletOfOwner",
      "outputs": [
        {
          "internalType": "uint256[]",
          "name": "",
          "type": "uint256[]"
        }
      ],
      "stateMutability": "view",
      "type": "function"
    },
    {
      "inputs": [],
      "name": "withdraw",
      "outputs": [],
      "stateMutability": "nonpayable",
      "type": "function"
    }
  ],
  "bytecode": "0x6000600e5560c06040526005608090815264173539b7b760d91b60a0526010906200002b90826200031e565b50680813ca56906d3400006011556806fe3c1087596400006012556805e8adca7e459400006013556015805460ff19169055601980546001600160a01b031990811673bada1b68a54f274814e050dbf0b6d1a8466e7a6317909155610398601a55601b8054909116732b98dbf6e4af55fad3f509152a867849b358677f1790556050601c55348015620000bd57600080fd5b506040516200355238038062003552833981016040819052620000e09162000407565b6040518060400160405280601481526020017f334420416c69656e2043726f736d6f62616279730000000000000000000000008152506040518060400160405280600381526020016220a1a160e91b81525081600090816200014391906200031e565b5060016200015282826200031e565b5050506200016f62000169620001b260201b60201c565b620001b6565b6001600b556200017f8362000208565b601d80546001600160a01b039384166001600160a01b031991821617909155601e80549290931691161790555062000501565b3390565b600a80546001600160a01b038381166001600160a01b0319831681179093556040519116919082907f8be0079c531659141344cd1fd0a4f28419497f9722a3daafe3b4186f6b6457e090600090a35050565b600a546001600160a01b03163314620002675760405162461bcd60e51b815260206004820181905260248201527f4f776e61626c653a2063616c6c6572206973206e6f7420746865206f776e6572604482015260640160405180910390fd5b600f6200027582826200031e565b5050565b634e487b7160e01b600052604160045260246000fd5b600181811c90821680620002a457607f821691505b602082108103620002c557634e487b7160e01b600052602260045260246000fd5b50919050565b601f8211156200031957600081815260208120601f850160051c81016020861015620002f45750805b601f850160051c820191505b81811015620003155782815560010162000300565b5050505b505050565b81516001600160401b038111156200033a576200033a62000279565b62000352816200034b84546200028f565b84620002cb565b602080601f8311600181146200038a5760008415620003715750858301515b600019600386901b1c1916600185901b17855562000315565b600085815260208120601f198616915b82811015620003bb578886015182559484019460019091019084016200039a565b5085821015620003da5787850151600019600388901b60f8161c191681555b5050505050600190811b01905550565b80516001600160a01b03811681146200040257600080fd5b919050565b6000806000606084860312156200041d57600080fd5b83516001600160401b03808211156200043557600080fd5b818601915086601f8301126200044a57600080fd5b8151818111156200045f576200045f62000279565b604051601f8201601f19908116603f011681019083821181831017156200048a576200048a62000279565b81604052828152602093508984848701011115620004a757600080fd5b600091505b82821015620004cb5784820184015181830185015290830190620004ac565b6000848483010152809750505050620004e6818701620003ea565b93505050620004f860408501620003ea565b90509250925092565b61304180620005116000396000f3fe6080604052600436106102e45760003560e01c80636352211e11610190578063b6cad81b116100dc578063d7c94efd11610095578063e213b5f61161006f578063e213b5f61461088c578063e985e9c5146108ac578063f2fde38b146108f5578063fce57fd91461091557600080fd5b8063d7c94efd14610836578063da3ef23f1461084c578063dcfb285f1461086c57600080fd5b8063b6cad81b14610795578063b88d4fde146107ab578063c6682862146107cb578063c87b56dd146107e0578063cf1d22c714610800578063d5abeb011461082057600080fd5b806397f700e811610149578063a22cb46511610123578063a22cb4651461071f578063a3342fba1461073f578063a7234b121461075f578063b25332ae1461077f57600080fd5b806397f700e8146106cc5780639f6d7bdc146106ec578063a0712d681461070c57600080fd5b80636352211e1461062457806369b5b29c1461064457806370a0823114610664578063715018a6146106845780638da5cb5b1461069957806395d89b41146106b757600080fd5b80632acc659e1161024f57806344a0d68a116102085780635924f660116101e25780635924f660146105b457806359927044146105d45780635c975abb146105f4578063603f4d521461060e57600080fd5b806344a0d68a146105545780634f6ccce71461057457806355f804b31461059457600080fd5b80632acc659e146104925780632d35b795146104b25780632f745c59146104d25780633ccfd60b146104f257806342842e0e14610507578063438b63001461052757600080fd5b80630c1c972a116102a15780630c1c972a146103cf5780630ea7a6af146103e457806313faede61461040857806318160ddd1461041e57806323b872dd146104335780632a55205a1461045357600080fd5b806301ffc9a7146102e957806302329a291461031e57806304c98b2b1461034057806306fdde0314610355578063081812fc14610377578063095ea7b3146103af575b600080fd5b3480156102f557600080fd5b5061030961030436600461272b565b610935565b60405190151581526020015b60405180910390f35b34801561032a57600080fd5b5061033e61033936600461275d565b610946565b005b34801561034c57600080fd5b5061033e61098c565b34801561036157600080fd5b5061036a6109bd565b60405161031591906127c8565b34801561038357600080fd5b506103976103923660046127db565b610a4f565b6040516001600160a01b039091168152602001610315565b3480156103bb57600080fd5b5061033e6103ca36600461280b565b610ae4565b3480156103db57600080fd5b5061033e610bf9565b3480156103f057600080fd5b506103fa60125481565b604051908152602001610315565b34801561041457600080fd5b506103fa60115481565b34801561042a57600080fd5b506008546103fa565b34801561043f57600080fd5b5061033e61044e366004612835565b610c2a565b34801561045f57600080fd5b5061047361046e366004612871565b610c5b565b604080516001600160a01b039093168352602083019190915201610315565b34801561049e57600080fd5b506103fa6104ad366004612893565b610d07565b3480156104be57600080fd5b5061033e6104cd366004612984565b610d45565b3480156104de57600080fd5b506103fa6104ed36600461280b565b610e56565b3480156104fe57600080fd5b5061033e610eec565b34801561051357600080fd5b5061033e610522366004612835565b611045565b34801561053357600080fd5b50610547610542366004612893565b611060565b6040516103159190612a44565b34801561056057600080fd5b5061033e61056f3660046127db565b611102565b34801561058057600080fd5b506103fa61058f3660046127db565b611131565b3480156105a057600080fd5b5061033e6105af366004612ae0565b6111c4565b3480156105c057600080fd5b50601e54610397906001600160a01b031681565b3480156105e057600080fd5b50601954610397906001600160a01b031681565b34801561060057600080fd5b506015546103099060ff1681565b34801561061a57600080fd5b506103fa600e5481565b34801561063057600080fd5b5061039761063f3660046127db565b6111fe565b34801561065057600080fd5b5061033e61065f366004612871565b611275565b34801561067057600080fd5b506103fa61067f366004612893565b611315565b34801561069057600080fd5b5061033e61139c565b3480156106a557600080fd5b50600a546001600160a01b0316610397565b3480156106c357600080fd5b5061036a6113d2565b3480156106d857600080fd5b5061033e6106e73660046127db565b6113e1565b3480156106f857600080fd5b50610309610707366004612893565b611410565b61033e61071a3660046127db565b61148a565b34801561072b57600080fd5b5061033e61073a366004612b29565b6117c1565b34801561074b57600080fd5b50601b54610397906001600160a01b031681565b34801561076b57600080fd5b5061030961077a366004612893565b6117cc565b34801561078b57600080fd5b506103fa601c5481565b3480156107a157600080fd5b506103fa60135481565b3480156107b757600080fd5b5061033e6107c6366004612b5c565b611802565b3480156107d757600080fd5b5061036a61183a565b3480156107ec57600080fd5b5061036a6107fb3660046127db565b6118c8565b34801561080c57600080fd5b5061033e61081b3660046127db565b6119a6565b34801561082c57600080fd5b506103fa6101f481565b34801561084257600080fd5b506103fa601a5481565b34801561085857600080fd5b5061033e610867366004612ae0565b6119d5565b34801561087857600080fd5b50601d54610397906001600160a01b031681565b34801561089857600080fd5b5061033e6108a7366004612984565b611a0b565b3480156108b857600080fd5b506103096108c7366004612bd8565b6001600160a01b03918216600090815260056020908152604080832093909416825291909152205460ff1690565b34801561090157600080fd5b5061033e610910366004612893565b611b41565b34801561092157600080fd5b5061033e610930366004612893565b611bdc565b600061094082611c28565b92915050565b600a546001600160a01b031633146109795760405162461bcd60e51b815260040161097090612c02565b60405180910390fd5b6015805460ff1916911515919091179055565b600a546001600160a01b031633146109b65760405162461bcd60e51b815260040161097090612c02565b6001600e55565b6060600080546109cc90612c37565b80601f01602080910402602001604051908101604052809291908181526020018280546109f890612c37565b8015610a455780601f10610a1a57610100808354040283529160200191610a45565b820191906000526020600020905b815481529060010190602001808311610a2857829003601f168201915b5050505050905090565b6000818152600260205260408120546001600160a01b0316610ac85760405162461bcd60e51b815260206004820152602c60248201527f4552433732313a20617070726f76656420717565727920666f72206e6f6e657860448201526b34b9ba32b73a103a37b5b2b760a11b6064820152608401610970565b506000908152600460205260409020546001600160a01b031690565b6000610aef826111fe565b9050806001600160a01b0316836001600160a01b031603610b5c5760405162461bcd60e51b815260206004820152602160248201527f4552433732313a20617070726f76616c20746f2063757272656e74206f776e656044820152603960f91b6064820152608401610970565b336001600160a01b0382161480610b785750610b7881336108c7565b610bea5760405162461bcd60e51b815260206004820152603860248201527f4552433732313a20617070726f76652063616c6c6572206973206e6f74206f7760448201527f6e6572206e6f7220617070726f76656420666f7220616c6c00000000000000006064820152608401610970565b610bf48383611c4d565b505050565b600a546001600160a01b03163314610c235760405162461bcd60e51b815260040161097090612c02565b6002600e55565b610c343382611cbb565b610c505760405162461bcd60e51b815260040161097090612c71565b610bf4838383611db2565b6000828152600d602090815260408083208151808301909252546001600160a01b038116808352600160a01b9091046001600160601b0316928201929092528291610cd0575060408051808201909152600c546001600160a01b0381168252600160a01b90046001600160601b031660208201525b602081015160009061271090610cef906001600160601b031687612cd8565b610cf99190612d05565b915196919550909350505050565b6000610d12826117cc565b1515600103610d2357505060135490565b610d2c82611410565b1515600103610d3d57505060125490565b505060115490565b600a546001600160a01b03163314610d6f5760405162461bcd60e51b815260040161097090612c02565b8051825114610db35760405162461bcd60e51b815260206004820152601060248201526f24b7383aba102230ba309032b93937b960811b6044820152606401610970565b60005b8251811015610bf4576017838281518110610dd357610dd3612d19565b60209081029190910181015182546001810184556000938452919092200180546001600160a01b0319166001600160a01b039092169190911790558151601890839083908110610e2557610e25612d19565b6020908102919091018101518254600181018455600093845291909220015580610e4e81612d2f565b915050610db6565b6000610e6183611315565b8210610ec35760405162461bcd60e51b815260206004820152602b60248201527f455243373231456e756d657261626c653a206f776e657220696e646578206f7560448201526a74206f6620626f756e647360a81b6064820152608401610970565b506001600160a01b03919091166000908152600660209081526040808320938352929052205490565b601c5447906000906103e890610f029084612cd8565b610f0c9190612d05565b601b546040519192506000916001600160a01b039091169083908381818185875af1925050503d8060008114610f5e576040519150601f19603f3d011682016040523d82523d6000602084013e610f63565b606091505b50508091505080610fab5760405162461bcd60e51b815260206004820152601260248201527114d95b991a5b99c818dc9bc819985a5b195960721b6044820152606401610970565b6019546040516001600160a01b03909116904790600081818185875af1925050503d8060008114610ff8576040519150601f19603f3d011682016040523d82523d6000602084013e610ffd565b606091505b50508091505080610bf45760405162461bcd60e51b815260206004820152601260248201527114d95b991a5b99c818dc9bc819985a5b195960721b6044820152606401610970565b610bf483838360405180602001604052806000815250611802565b6060600061106d83611315565b905060008167ffffffffffffffff81111561108a5761108a6128ae565b6040519080825280602002602001820160405280156110b3578160200160208202803683370190505b50905060005b828110156110fa576110cb8582610e56565b8282815181106110dd576110dd612d19565b6020908102919091010152806110f281612d2f565b9150506110b9565b509392505050565b600a546001600160a01b0316331461112c5760405162461bcd60e51b815260040161097090612c02565b601155565b600061113c60085490565b821061119f5760405162461bcd60e51b815260206004820152602c60248201527f455243373231456e756d657261626c653a20676c6f62616c20696e646578206f60448201526b7574206f6620626f756e647360a01b6064820152608401610970565b600882815481106111b2576111b2612d19565b90600052602060002001549050919050565b600a546001600160a01b031633146111ee5760405162461bcd60e51b815260040161097090612c02565b600f6111fa8282612d96565b5050565b6000818152600260205260408120546001600160a01b0316806109405760405162461bcd60e51b815260206004820152602960248201527f4552433732313a206f776e657220717565727920666f72206e6f6e657869737460448201526832b73a103a37b5b2b760b91b6064820152608401610970565b600a546001600160a01b0316331461129f5760405162461bcd60e51b815260040161097090612c02565b815b818111610bf4576101f48111156112ed5760405162461bcd60e51b815260206004820152601060248201526f125b9d985b1a59081d1bdad95b88125160821b6044820152606401610970565b601954611303906001600160a01b031682611f59565b8061130d81612d2f565b9150506112a1565b60006001600160a01b0382166113805760405162461bcd60e51b815260206004820152602a60248201527f4552433732313a2062616c616e636520717565727920666f7220746865207a65604482015269726f206164647265737360b01b6064820152608401610970565b506001600160a01b031660009081526003602052604090205490565b600a546001600160a01b031633146113c65760405162461bcd60e51b815260040161097090612c02565b6113d06000611f73565b565b6060600180546109cc90612c37565b600a546001600160a01b0316331461140b5760405162461bcd60e51b815260040161097090612c02565b601355565b601e546040516370a0823160e01b81526001600160a01b03838116600483015260009283929116906370a08231906024015b602060405180830381865afa15801561145f573d6000803e3d6000fd5b505050506040513d601f19601f820116820180604052508101906114839190612e56565b1192915050565b6002600b54036114dc5760405162461bcd60e51b815260206004820152601f60248201527f5265656e7472616e637947756172643a207265656e7472616e742063616c6c006044820152606401610970565b6002600b5560155460ff161561151d5760405162461bcd60e51b81526020600482015260066024820152651c185d5cd95960d21b6044820152606401610970565b6000600e54116115655760405162461bcd60e51b815260206004820152601360248201527214d85b19481a5cc81b9bdd081cdd185c9d1959606a1b6044820152606401610970565b600e546001036115d35761157833611410565b806115875750611587336117cc565b6115d35760405162461bcd60e51b815260206004820152601c60248201527f4e6f2043726f736d6f6372616674206f722043726f736d6f6e617574000000006044820152606401610970565b600e546001146115e457600a6115e7565b60045b3360009081526016602052604090205460ff9190911690611609908390612e6f565b11156116575760405162461bcd60e51b815260206004820152601960248201527f45786365656473206d6178206d696e7461626c65206e667473000000000000006044820152606401610970565b6000811161169e5760405162461bcd60e51b8152602060048201526014602482015273616d6f756e742063616e2774206265207a65726f60601b6044820152606401610970565b60006116a960085490565b90506101f46116b88383612e6f565b11156116fc5760405162461bcd60e51b815260206004820152601360248201527213585e081cdd5c1c1b1e48195e18d959591959606a1b6044820152606401610970565b60115461170833611410565b1561171257506012545b61171b336117cc565b1561172557506013545b61172f8382612cd8565b3410156117735760405162461bcd60e51b8152602060048201526012602482015271696e73756666696369656e742066756e647360701b6044820152606401610970565b60005b838110156117b65761178c601480546001019055565b600061179760145490565b90506117a33382611f59565b50806117ae81612d2f565b915050611776565b50506001600b555050565b6111fa338383611fc5565b601d546040516370a0823160e01b81526001600160a01b03838116600483015260009283929116906370a0823190602401611442565b61180c3383611cbb565b6118285760405162461bcd60e51b815260040161097090612c71565b61183484848484612093565b50505050565b6010805461184790612c37565b80601f016020809104026020016040519081016040528092919081815260200182805461187390612c37565b80156118c05780601f10611895576101008083540402835291602001916118c0565b820191906000526020600020905b8154815290600101906020018083116118a357829003601f168201915b505050505081565b6000818152600260205260409020546060906001600160a01b03166119475760405162461bcd60e51b815260206004820152602f60248201527f4552433732314d657461646174613a2055524920717565727920666f72206e6f60448201526e3732bc34b9ba32b73a103a37b5b2b760891b6064820152608401610970565b60006119516120c6565b90506000815111611971576040518060200160405280600081525061199f565b8061197b846120d5565b601060405160200161198f93929190612e82565b6040516020818303038152906040525b9392505050565b600a546001600160a01b031633146119d05760405162461bcd60e51b815260040161097090612c02565b601255565b600a546001600160a01b031633146119ff5760405162461bcd60e51b815260040161097090612c02565b60106111fa8282612d96565b600a546001600160a01b03163314611a355760405162461bcd60e51b815260040161097090612c02565b8051825114611a795760405162461bcd60e51b815260206004820152601060248201526f24b7383aba102230ba309032b93937b960811b6044820152606401610970565b6000611a8460085490565b905060005b83518110156118345760005b838281518110611aa757611aa7612d19565b6020026020010151811015611b0757611ac4601480546001019055565b6000611acf60145490565b9050611af4868481518110611ae657611ae6612d19565b602002602001015182611f59565b5080611aff81612d2f565b915050611a95565b50828181518110611b1a57611b1a612d19565b602002602001015182611b2d9190612e6f565b915080611b3981612d2f565b915050611a89565b600a546001600160a01b03163314611b6b5760405162461bcd60e51b815260040161097090612c02565b6001600160a01b038116611bd05760405162461bcd60e51b815260206004820152602660248201527f4f776e61626c653a206e6577206f776e657220697320746865207a65726f206160448201526564647265737360d01b6064820152608401610970565b611bd981611f73565b50565b600a546001600160a01b03163314611c065760405162461bcd60e51b815260040161097090612c02565b601b80546001600160a01b0319166001600160a01b0392909216919091179055565b60006001600160e01b0319821663152a902d60e11b14806109405750610940826121d6565b600081815260046020526040902080546001600160a01b0319166001600160a01b0384169081179091558190611c82826111fe565b6001600160a01b03167f8c5be1e5ebec7d5bd14f71427d1e84f3dd0314c0f7b2291e5b200ac8c7c3b92560405160405180910390a45050565b6000818152600260205260408120546001600160a01b0316611d345760405162461bcd60e51b815260206004820152602c60248201527f4552433732313a206f70657261746f7220717565727920666f72206e6f6e657860448201526b34b9ba32b73a103a37b5b2b760a11b6064820152608401610970565b6000611d3f836111fe565b9050806001600160a01b0316846001600160a01b03161480611d7a5750836001600160a01b0316611d6f84610a4f565b6001600160a01b0316145b80611daa57506001600160a01b0380821660009081526005602090815260408083209388168352929052205460ff165b949350505050565b826001600160a01b0316611dc5826111fe565b6001600160a01b031614611e295760405162461bcd60e51b815260206004820152602560248201527f4552433732313a207472616e736665722066726f6d20696e636f72726563742060448201526437bbb732b960d91b6064820152608401610970565b6001600160a01b038216611e8b5760405162461bcd60e51b8152602060048201526024808201527f4552433732313a207472616e7366657220746f20746865207a65726f206164646044820152637265737360e01b6064820152608401610970565b611e968383836121fb565b611ea1600082611c4d565b6001600160a01b0383166000908152600360205260408120805460019290611eca908490612f22565b90915550506001600160a01b0382166000908152600360205260408120805460019290611ef8908490612e6f565b909155505060008181526002602052604080822080546001600160a01b0319166001600160a01b0386811691821790925591518493918716917fddf252ad1be2c89b69c2b068fc378daa952ba7f163c4a11628f55a4df523b3ef91a4505050565b6111fa8282604051806020016040528060008152506122b3565b600a80546001600160a01b038381166001600160a01b0319831681179093556040519116919082907f8be0079c531659141344cd1fd0a4f28419497f9722a3daafe3b4186f6b6457e090600090a35050565b816001600160a01b0316836001600160a01b0316036120265760405162461bcd60e51b815260206004820152601960248201527f4552433732313a20617070726f766520746f2063616c6c6572000000000000006044820152606401610970565b6001600160a01b03838116600081815260056020908152604080832094871680845294825291829020805460ff191686151590811790915591519182527f17307eab39ab6107e8899845ad3d59bd9653f200f220920489ca2b5937696c31910160405180910390a3505050565b61209e848484611db2565b6120aa848484846122e6565b6118345760405162461bcd60e51b815260040161097090612f35565b6060600f80546109cc90612c37565b6060816000036120fc5750506040805180820190915260018152600360fc1b602082015290565b8160005b8115612126578061211081612d2f565b915061211f9050600a83612d05565b9150612100565b60008167ffffffffffffffff811115612141576121416128ae565b6040519080825280601f01601f19166020018201604052801561216b576020820181803683370190505b5090505b8415611daa57612180600183612f22565b915061218d600a86612f87565b612198906030612e6f565b60f81b8183815181106121ad576121ad612d19565b60200101906001600160f81b031916908160001a9053506121cf600a86612d05565b945061216f565b60006001600160e01b0319821663780e9d6360e01b14806109405750610940826123e7565b6001600160a01b0383166122565761225181600880546000838152600960205260408120829055600182018355919091527ff3f7a9fe364faab93b216da50a3214154f22a0a2b415b23a84c8169e8b636ee30155565b612279565b816001600160a01b0316836001600160a01b031614612279576122798382612437565b6001600160a01b03821661229057610bf4816124d4565b826001600160a01b0316826001600160a01b031614610bf457610bf48282612583565b6122bd83836125c7565b6122ca60008484846122e6565b610bf45760405162461bcd60e51b815260040161097090612f35565b60006001600160a01b0384163b156123dc57604051630a85bd0160e11b81526001600160a01b0385169063150b7a029061232a903390899088908890600401612f9b565b6020604051808303816000875af1925050508015612365575060408051601f3d908101601f1916820190925261236291810190612fd8565b60015b6123c2573d808015612393576040519150601f19603f3d011682016040523d82523d6000602084013e612398565b606091505b5080516000036123ba5760405162461bcd60e51b815260040161097090612f35565b805181602001fd5b6001600160e01b031916630a85bd0160e11b149050611daa565b506001949350505050565b60006001600160e01b031982166380ac58cd60e01b148061241857506001600160e01b03198216635b5e139f60e01b145b8061094057506301ffc9a760e01b6001600160e01b0319831614610940565b6000600161244484611315565b61244e9190612f22565b6000838152600760205260409020549091508082146124a1576001600160a01b03841660009081526006602090815260408083208584528252808320548484528184208190558352600790915290208190555b5060009182526007602090815260408084208490556001600160a01b039094168352600681528383209183525290812055565b6008546000906124e690600190612f22565b6000838152600960205260408120546008805493945090928490811061250e5761250e612d19565b90600052602060002001549050806008838154811061252f5761252f612d19565b600091825260208083209091019290925582815260099091526040808220849055858252812055600880548061256757612567612ff5565b6001900381819060005260206000200160009055905550505050565b600061258e83611315565b6001600160a01b039093166000908152600660209081526040808320868452825280832085905593825260079052919091209190915550565b6001600160a01b03821661261d5760405162461bcd60e51b815260206004820181905260248201527f4552433732313a206d696e7420746f20746865207a65726f20616464726573736044820152606401610970565b6000818152600260205260409020546001600160a01b0316156126825760405162461bcd60e51b815260206004820152601c60248201527f4552433732313a20746f6b656e20616c7265616479206d696e746564000000006044820152606401610970565b61268e600083836121fb565b6001600160a01b03821660009081526003602052604081208054600192906126b7908490612e6f565b909155505060008181526002602052604080822080546001600160a01b0319166001600160a01b03861690811790915590518392907fddf252ad1be2c89b69c2b068fc378daa952ba7f163c4a11628f55a4df523b3ef908290a45050565b6001600160e01b031981168114611bd957600080fd5b60006020828403121561273d57600080fd5b813561199f81612715565b8035801515811461275857600080fd5b919050565b60006020828403121561276f57600080fd5b61199f82612748565b60005b8381101561279357818101518382015260200161277b565b50506000910152565b600081518084526127b4816020860160208601612778565b601f01601f19169290920160200192915050565b60208152600061199f602083018461279c565b6000602082840312156127ed57600080fd5b5035919050565b80356001600160a01b038116811461275857600080fd5b6000806040838503121561281e57600080fd5b612827836127f4565b946020939093013593505050565b60008060006060848603121561284a57600080fd5b612853846127f4565b9250612861602085016127f4565b9150604084013590509250925092565b6000806040838503121561288457600080fd5b50508035926020909101359150565b6000602082840312156128a557600080fd5b61199f826127f4565b634e487b7160e01b600052604160045260246000fd5b604051601f8201601f1916810167ffffffffffffffff811182821017156128ed576128ed6128ae565b604052919050565b600067ffffffffffffffff82111561290f5761290f6128ae565b5060051b60200190565b600082601f83011261292a57600080fd5b8135602061293f61293a836128f5565b6128c4565b82815260059290921b8401810191818101908684111561295e57600080fd5b8286015b848110156129795780358352918301918301612962565b509695505050505050565b6000806040838503121561299757600080fd5b823567ffffffffffffffff808211156129af57600080fd5b818501915085601f8301126129c357600080fd5b813560206129d361293a836128f5565b82815260059290921b840181019181810190898411156129f257600080fd5b948201945b83861015612a1757612a08866127f4565b825294820194908201906129f7565b96505086013592505080821115612a2d57600080fd5b50612a3a85828601612919565b9150509250929050565b6020808252825182820181905260009190848201906040850190845b81811015612a7c57835183529284019291840191600101612a60565b50909695505050505050565b600067ffffffffffffffff831115612aa257612aa26128ae565b612ab5601f8401601f19166020016128c4565b9050828152838383011115612ac957600080fd5b828260208301376000602084830101529392505050565b600060208284031215612af257600080fd5b813567ffffffffffffffff811115612b0957600080fd5b8201601f81018413612b1a57600080fd5b611daa84823560208401612a88565b60008060408385031215612b3c57600080fd5b612b45836127f4565b9150612b5360208401612748565b90509250929050565b60008060008060808587031215612b7257600080fd5b612b7b856127f4565b9350612b89602086016127f4565b925060408501359150606085013567ffffffffffffffff811115612bac57600080fd5b8501601f81018713612bbd57600080fd5b612bcc87823560208401612a88565b91505092959194509250565b60008060408385031215612beb57600080fd5b612bf4836127f4565b9150612b53602084016127f4565b6020808252818101527f4f776e61626c653a2063616c6c6572206973206e6f7420746865206f776e6572604082015260600190565b600181811c90821680612c4b57607f821691505b602082108103612c6b57634e487b7160e01b600052602260045260246000fd5b50919050565b60208082526031908201527f4552433732313a207472616e736665722063616c6c6572206973206e6f74206f6040820152701ddb995c881b9bdc88185c1c1c9bdd9959607a1b606082015260800190565b634e487b7160e01b600052601160045260246000fd5b808202811582820484141761094057610940612cc2565b634e487b7160e01b600052601260045260246000fd5b600082612d1457612d14612cef565b500490565b634e487b7160e01b600052603260045260246000fd5b600060018201612d4157612d41612cc2565b5060010190565b601f821115610bf457600081815260208120601f850160051c81016020861015612d6f5750805b601f850160051c820191505b81811015612d8e57828155600101612d7b565b505050505050565b815167ffffffffffffffff811115612db057612db06128ae565b612dc481612dbe8454612c37565b84612d48565b602080601f831160018114612df95760008415612de15750858301515b600019600386901b1c1916600185901b178555612d8e565b600085815260208120601f198616915b82811015612e2857888601518255948401946001909101908401612e09565b5085821015612e465787850151600019600388901b60f8161c191681555b5050505050600190811b01905550565b600060208284031215612e6857600080fd5b5051919050565b8082018082111561094057610940612cc2565b600084516020612e958285838a01612778565b855191840191612ea88184848a01612778565b8554920191600090612eb981612c37565b60018281168015612ed15760018114612ee657612f12565b60ff1984168752821515830287019450612f12565b896000528560002060005b84811015612f0a57815489820152908301908701612ef1565b505082870194505b50929a9950505050505050505050565b8181038181111561094057610940612cc2565b60208082526032908201527f4552433732313a207472616e7366657220746f206e6f6e20455243373231526560408201527131b2b4bb32b91034b6b83632b6b2b73a32b960711b606082015260800190565b600082612f9657612f96612cef565b500690565b6001600160a01b0385811682528416602082015260408101839052608060608201819052600090612fce9083018461279c565b9695505050505050565b600060208284031215612fea57600080fd5b815161199f81612715565b634e487b7160e01b600052603160045260246000fdfea2646970667358221220c1095e957c7ea77de33f9213386995de1a27e5c4c2fc04b0b989c7f4b576feb964736f6c63430008110033",
  "linkReferences": {},
  "deployedLinkReferences": {}
}